:1000000063C0000003C7000028C700000C94C409A7
:100010000C94C4090C94C4097EC000007CC000008C
:100020007AC0000078C0000076C0000074C00000F4
:1000300072C0000070C000006EC000006CC0000004
:100040003EC7000068C000008CC40000BCC40000B3
:1000500062C0000060C000005EC000005CC0000024
:100060005AC0000058C00000000000080002010053
:100070000003040700000000000000000102040863
:100080001020408001020408102001020408102002
:10009000040404040404040402020202020203032E
:1000A00003030303000000002300260029000000D2
:1000B0000000250028002B0000000000240027007D
:1000C0002A00E7001105EE0011241FBECFEFD8E093
:1000D000DEBFCDBF15E0A0E0B1E0E8EBF7E102C084
:1000E00005900D92A030B107D9F726E0A0E0B5E069
:1000F00001C01D92A331B207E1F710E0C6ECD0E0D9
:1001000004C02297FE010E94BD0BC23CD107C9F773
:10011000CCD60C94D00B74CF26E040E052EC61E0DA
:1001200070E089E295E0BDD34AE050E060E070E025
:1001300089E295E0D7D56EE071E089E295E0F6D4EA
:1001400040E05BE460E070E08AE095E00E94C00A75
:1001500064E670E080E090E02BD763E471E089E230
:1001600095E0E4D460E088E0BED760E08CE0BBD7E7
:1001700066E671E089E295E0D9D442E050E06AE1B8
:1001800071E081E023D642E050E064E671E080E077
:100190001DD66FE871E089E295E0C8D460E084E0A4
:1001A000A2D760E087E09FD760E08AE09CD760E05C
:1001B0008BE099D760E08DE096D765EB71E089E23E
:1001C00095E0B4C468EE73E080E090E0F1C620E012
:1001D00046E065E08AE095E00C94920A8AE095E0BA
:1001E0000C943E0A6FE7680F8AE095E00C940309CF
:1001F0002FE330E0281B390B2034310548F420E48C
:1002000030E0A901481B590BCA01ECDF81E00895D9
:1002100080E008959C01215031092F33310528F4E5
:10022000805C9F4FDFDF81E0089580E0089580E4E7
:1002300090E0D8CF809106059091070501969093A4
:10024000070580930605209102053091030582176A
:10025000930798F466ED71E089E295E063D46091CC
:100260000605709107054AE050E089E295E0C7D4A1
:1002700065EC72E089E295E059C4D9CF682F8AE035
:1002800095E0C1C72FE330E0281B390B203431053E
:1002900048F420E430E0A901481B590BCA01EEDF05
:1002A00081E0089580E008959C01215031092F33A9
:1002B000310528F4805C9F4FE1DF81E0089580E004
:1002C000089580E490E0DACF8091040590910505CF
:1002D00001969093050580930405209100053091C7
:1002E00001058217930798F46AED71E089E295E0C1
:1002F00019D460910405709105054AE050E089E247
:1003000095E07DD465EC72E089E295E00FC4D9CF29
:10031000CF92DF92EF92FF9289E295E0FCD187378E
:10032000D9F441E060E070E089E295E0E1D46B014E
:100330007C01CB0101978739924018F06EED71E096
:10034000CAC1809108019091090152DF8091060194
:100350009091070197DF19C0833749F541E060E0CC
:1003600070E089E295E0C4D46B017C01CB01019778
:100370008739924018F780910801909109014ADF6E
:1003800080910601909107018FDF81E0809309053C
:1003900080930805D0920305C0920205D092010512
:1003A000C09200051092070510920605AEC0813676
:1003B00069F541E060E070E089E295E099D49B0145
:1003C000215031092739324008F0B8CF21E020937D
:1003D0000905209308057093030560930205709347
:1003E0000105609300051092070510920605109212
:1003F00005051092040580910801909109010ADF1A
:1004000080910601909107013DDF63C18436A1F41C
:1004100041E060E070E089E295E06AD46B017C0124
:10042000CB0101978739924008F088CF809108016D
:1004300090910901DDDEA4CF8137A1F441E060E0B5
:1004400070E089E295E054D46B017C01CB01019707
:100450008739924008F072CF80910801909109018C
:10046000C7DE2BC08536A1F441E060E070E089E290
:1004700095E03ED46B017C01CB0101978739924016
:1004800008F05CCF8091060190910701FBDE36C039
:100490008A37F9F441E060E070E089E295E028D421
:1004A0006B017C01CB0101978739924008F046CF60
:1004B0008091080190910901ADDE81E080930905EA
:1004C000D0920305C092020510920705109206050E
:1004D00000C18336F9F441E060E070E089E295E024
:1004E00007D46B017C01CB0101978739924008F05A
:1004F00025CF8091060190910701D6DE81E080939F
:100500000805D0920105C0920005109205051092D1
:100510000405DFC0883719F48ADED3DEDAC08237FB
:10052000B1F441E060E070E089E295E0E1D39B0145
:10053000215031092F33310508F000CF70930901A4
:10054000609308017093070160930601C2C084376D
:1005500011F0893791F441E060E070E089E295E0C4
:10056000C7D39B01215031092F33310508F0E6CE66
:100570007093090160930801ACC08636C1F46091A4
:100580000801709109014AE050E089E295E037D313
:1005900065EC72E089E295E0C5D260910601709148
:1005A00007014AE050E089E295E029D392C08637FE
:1005B00081F460EE71E089E295E0B4D267EF71E01A
:1005C00089E295E0AFD269EF71E089E295E0AED2C1
:1005D000B5CE883409F0B2CE65E072E089E295E0EC
:1005E000A5D264E472E089E295E0A0D264E572E00D
:1005F00089E295E09BD26DE872E089E295E096D2BF
:1006000065E072E089E295E091D265EA72E089E204
:1006100095E08CD26CEA72E089E295E087D267ECD3
:1006200072E089E295E082D26EED72E089E295E0B7
:100630007DD265EF72E089E295E078D269E073E0FF
:1006400089E295E073D26EE173E089E295E06ED2C3
:100650006AE373E089E295E069D266E573E089E2D6
:1006600095E064D263E773E089E295E05FD260E9E8
:1006700073E089E295E05AD26FE973E089E295E090
:1006800055D265EB73E089E295E050D263ED73E0FB
:1006900089E295E04BD262EF73E089E295E046D2C1
:1006A00060E374E089E295E041D265E574E089E2B7
:1006B00095E03CD26AE774E089E295E037D26CE9D4
:1006C00074E089E295E032D265E072E089E295E07B
:1006D0002DD265EC72E089E295E0FF90EF90DF901B
:1006E000CF9024C2FC01818D228D90E0805C9F4FD1
:1006F000821B91098F7399270895FC01918D828D3A
:10070000981731F0828DE80FF11D858D90E00895E6
:100710008FEF9FEF0895FC01918D828D981761F006
:10072000828DDF01A80FB11D5D968C91928D9F5F28
:100730009F73928F90E008958FEF9FEF089588E068
:1007400095E0892B39F088E891E0892B19F060D188
:100750008111DECD0895FC01848DDF01A80FB11D4C
:10076000A35ABF4F2C91848D90E001968F739927E7
:10077000848FA689B7892C93A089B1898C918064D4
:100780008C93938D848D981306C00288F389E02D95
:1007900080818F7D80830895CF93DF93EC01888DD6
:1007A0008823C1F0EA89FB89808185FD05C0A8897D
:1007B000B9898C9186FD0EC00FB607FCF5CF8081FC
:1007C00085FFF2CFA889B9898C9185FFEDCFCE0145
:1007D000C2DFE8CFDF91CF910895CF92DF92FF92F1
:1007E0000F931F93CF93DF931F92CDB7DEB76C01AA
:1007F00081E0D60158968C9358975B969C915B97B5
:100800005C968C915C97981307C05096ED91FC9183
:100810005197808185FD2DC0F601038D10E00F5F9B
:100820001F4F0F731127F02EF601848DF81210C0A0
:100830000FB607FCF9CFD6015096ED91FC91519778
:10084000808185FFF1CFC601698385DF6981ECCFA7
:10085000838DE80FF11DE35AFF4F6083D6015B964D
:100860000C935B975296ED91FC9153978081806237
:100870000CC0D6015696ED91FC9157976083509627
:10088000ED91FC91519780818064808381E090E0BC
:100890000F90DF91CF911F910F91FF90DF90CF903C
:1008A0000895BF92CF92DF92EF92FF92CF93DF93A2
:1008B000EC016A017B01B22EE889F98982E080832C
:1008C000411581EE58076105710599F060E079E006
:1008D0008DE390E0A7019601F2D62150310941093C
:1008E00051095695479537952795211580E1380789
:1008F00090F0E889F989108260E874E88EE190E070
:10090000A7019601DCD621503109410951095695BC
:10091000479537952795EC85FD853083EE85FF85D6
:100920002083188EEC89FD89B082EA89FB89808159
:1009300080618083EA89FB89808188608083EA897D
:10094000FB89808180688083EA89FB8980818F7D33
:100950008083DF91CF91FF90EF90DF90CF90BF9099
:1009600008951F920F920FB60F9211242F938F9319
:100970009F93EF93FF93E0913905F0913A058081C1
:10098000E0913F05F091400582FD12C09081809179
:1009900042058F5F8F7320914305821751F0E091DC
:1009A0004205F0E0E75DFA4F958F8093420501C064
:1009B0008081FF91EF919F918F912F910F900FBEAA
:1009C0000F901F9018951F920F920FB60F9211243F
:1009D0002F933F934F935F936F937F938F939F9347
:1009E000AF93BF93EF93FF9389E295E0B4DEFF915D
:1009F000EF91BF91AF919F918F917F916F915F9197
:100A00004F913F912F910F900FBE0F901F9018950F
:100A100089E295E067DE21E0892B09F420E0822F4E
:100A2000089510922C0510922B0588EE93E0A0E01B
:100A3000B0E080932D0590932E05A0932F05B093E1
:100A4000300585ED94E090932A058093290585EC87
:100A500090E0909336058093350584EC90E0909378
:100A600038058093370580EC90E090933A058093A9
:100A7000390581EC90E090933C0580933B0582EC36
:100A800090E090933E0580933D0586EC90E0909336
:100A9000400580933F051092420510924305109245
:100AA0004405109245050895CF92DF92EF92FF9290
:100AB0000F931F93CF93DF937C016A01EB0100E05A
:100AC00010E00C151D0571F06991D701ED91FC91B5
:100AD0000190F081E02DC7010995892B19F00F5F76
:100AE0001F4FEFCFC801DF91CF911F910F91FF9062
:100AF000EF90DF90CF9008956115710581F0DB01D3
:100B00000D900020E9F7AD0141505109461B570BEC
:100B1000DC01ED91FC910280F381E02D099480E0ED
:100B200090E00895E9CF61EE74E0E6CF0F931F9354
:100B3000CF93DF93EC01E0DF8C01CE01F4DF800F77
:100B4000911FDF91CF911F910F9108958F929F92E6
:100B5000AF92BF92DF92EF92FF920F931F93CF93CA
:100B6000DF93CDB7DEB7A1970FB6F894DEBF0FBE07
:100B7000CDBF7C01F42FD52ECB0119A2223008F471
:100B80002AE08E010F5D1F4F822E912CA12CB12CDB
:100B90006F2F7D2DA501940192D5F22FD32ECA017E
:100BA000015011096A3014F4E0E301C0E7E3E60FF5
:100BB000D801EC93232B242B252B51F7B801C70127
:100BC0009BDFA1960FB6F894DEBF0FBECDBFDF91BD
:100BD000CF911F910F91FF90EF90DF90BF90AF905A
:100BE0009F908F9008952115310541F4DC01ED911E
:100BF000FC910190F081E02D642F0994A7CF9A0118
:100C0000AB0160E070E0EFCF0F931F93CF93DF93C2
:100C1000EC019FD1688779878A879B87E881F98172
:100C20000084F185E02DCE01099597FF14C091D184
:100C3000088519852A853B85601B710B820B930BF8
:100C40000C811D812E813F816017710782079307F8
:100C500028F38FEF9FEFDF91CF911F910F910895B0
:100C6000FF920F931F93CF93DF93EC018B01F42E30
:100C7000CE01CADF9C0197FD28C08D32910519F184
:100C8000C0970A9710F1FF2019F02E323105F9F0C4
:100C900001301105F9F00230110569F42D303105EC
:100CA00051F034F4295031092230310520F012C0BE
:100CB0002032310579F4E881F9810680F781E02D51
:100CC000CE010995D5CF8DE203C0C90105C08EE2E2
:100CD00090E002C08FEF9FEFDF91CF911F910F91B6
:100CE000FF900895FC0144835583668377830895BC
:100CF000CF92DF92FF920F931F93CF93DF9300D099
:100D000000D0CDB7DEB76C01042F40E0A9DFFC01B5
:100D100097FD49C020E030E0A901F12C112707FD23
:100D20001095E017F107E1F0ED32F105B9F0CF01D0
:100D3000C0970A97A8F4AAE0B0E0FFD49B01AC01E9
:100D4000CF01AA2797FDA095BA2F280F391F4A1F58
:100D50005B1F205331094109510902C0FF24F3945C
:100D6000D601ED91FC910680F781E02DC601298323
:100D70003A834B835C830995C60146DFFC01C0972B
:100D800029813A814B815C810A9758F2E017F1077B
:100D900041F2FF2061F066277727CB01621B730BBE
:100DA000840B950B06C060E070E0CB0102C0CA0165
:100DB000B9010F900F900F900F90DF91CF911F917D
:100DC0000F91FF90DF90CF90089508958230E8F45E
:100DD000E82FF0E0EE0FFF1FE65FFE4F71836083A8
:100DE000813041F0809169008C7F842B8093690071
:100DF000E89A089580916900440F551F440F551FCC
:100E0000837F842B80936900E99A08951F920F9243
:100E10000FB60F9211242F933F934F935F936F93CD
:100E20007F938F939F93AF93BF93EF93FF93E09143
:100E30000A01F0910B010995FF91EF91BF91AF91DC
:100E40009F918F917F916F915F914F913F912F91E2
:100E50000F900FBE0F901F9018951F920F920FB614
:100E60000F9211242F933F934F935F936F937F9330
:100E70008F939F93AF93BF93EF93FF93E0910C01F8
:100E8000F0910D010995FF91EF91BF91AF919F9165
:100E90008F917F916F915F914F913F912F910F9023
:100EA0000FBE0F901F9018950895B9D0FDDF34D96B
:100EB000CFE9D3E087D92097E9F341DCFBCF1F923C
:100EC0000F920FB60F9211242F933F938F939F93FE
:100ED000AF93BF938091C7059091C805A091C905B4
:100EE000B091CA053091C60523E0230F2D3720F4B9
:100EF0000196A11DB11D05C026E8230F0296A11D74
:100F0000B11D2093C6058093C7059093C805A09393
:100F1000C905B093CA058091CB059091CC05A091ED
:100F2000CD05B091CE050196A11DB11D8093CB05D5
:100F30009093CC05A093CD05B093CE05BF91AF9112
:100F40009F918F913F912F910F900FBE0F901F9007
:100F500018952FB7F8946091C7057091C8058091D6
:100F6000C9059091CA052FBF08953FB7F8948091A5
:100F7000CB059091CC05A091CD05B091CE0526B5BD
:100F8000A89B05C02F3F19F00196A11DB11D3FBFC1
:100F90006627782F892F9A2F620F711D811D911D51
:100FA00042E0660F771F881F991F4A95D1F7089571
:100FB0008F929F92AF92BF92CF92DF92EF92FF9269
:100FC0006B017C01D2DF4B015C01C114D104E1044F
:100FD000F104E1F0F6D0C9DF681979098A099B09A3
:100FE000683E73408105910580F321E0C21AD10863
:100FF000E108F10888EE880E83E0981EA11CB11C60
:10100000C114D104E104F10431F7DFCFFF90EF9078
:10101000DF90CF90BF90AF909F908F90089578947D
:1010200084B5826084BD84B5816084BD85B58260ED
:1010300085BD85B5816085BDEEE6F0E0808181608B
:101040008083E1E8F0E0108280818260808380818B
:1010500081608083E0E8F0E0808181608083E1EB63
:10106000F0E0808184608083E0EBF0E0808181604B
:101070008083EAE7F0E08081846080838081826001
:1010800080838081816080838081806880831092EA
:10109000C1000895833081F028F4813099F08230C6
:1010A000A1F008958730A9F08830B9F08430D1F4E8
:1010B000809180008F7D03C0809180008F77809326
:1010C0008000089584B58F7702C084B58F7D84BD7C
:1010D00008958091B0008F7703C08091B0008F7D1C
:1010E0008093B0000895CF93DF9390E0FC01E45823
:1010F000FF4F2491FC01E057FF4F8491882349F171
:1011000090E0880F991FFC01E854FF4FA591B4911E
:1011100082559F4FFC01C591D4919FB7611108C0C2
:10112000F8948C91209582238C93888182230AC025
:10113000623051F4F8948C91322F309583238C9344
:101140008881822B888304C0F8948C91822B8C93A5
:101150009FBFDF91CF9108950F931F93CF93DF939C
:101160001F92CDB7DEB7282F30E0F901E859FF4FC5
:101170008491F901E458FF4F1491F901E057FF4FB2
:1011800004910023C1F0882319F0698383DF69810A
:10119000E02FF0E0EE0FFF1FE255FF4FA591B49155
:1011A0009FB7F8948C91611103C01095812301C001
:1011B000812B8C939FBF0F90DF91CF911F910F9147
:1011C00008950895209111063091120628173907C5
:1011D000B9F49091CF058091D005981789F0E091EE
:1011E000CF05F0E0EF52FA4F80812091CF0530E03B
:1011F0002F5F3F4F2F7333272093CF0590E0089543
:101200008FEF9FEF08951F93CF93DF93DC015C96E0
:101210008D919C915D97009749F481E090E0139641
:101220009C938E93129780E090E03BC05196ED9195
:10123000FC91529750962C915097322F30951FB7B2
:101240005E964C915E9741FB772770F941FD609562
:10125000F8944081772311F0422B01C0432340834F
:10126000EC012197F1F748E0508160FF02C0522B5A
:1012700001C053235083EC012197F1F7669541504B
:1012800099F78081772311F0832301C0822B80831B
:101290001FBF5C968D919C915D970197F1F781E05E
:1012A00090E0DF91CF911F9108950895209111064C
:1012B000309112062817390781F49091CF0580915B
:1012C000D005981751F0E091CF05F0E0EF52FA4FBA
:1012D0008081992787FD909508958FEF9FEF08955E
:1012E00020911106309112062817390761F4809178
:1012F000D0052091CF0590E0805C9F4F821B910923
:1013000060E470E0C9C180E090E00895E0911106CA
:10131000F0911206E817F90769F4A389B4899C9142
:101320008589809589238C9310921206109211065C
:1013300081E0089580E00895CF93DF93EC018A8DDA
:101340009B8D892BE9F080911106909112068C17E4
:101350009D07B1F0009709F0D9DF8E8D8E7F8E8FBB
:101360001092D0051092CF05D0931206C0931106AB
:10137000EB89FC8980819D89892B808381E001C074
:1013800080E0DF91CF9108951F920F920FB60F92D8
:1013900011242F933F934F935F936F937F938F937A
:1013A0009F93AF93BF93EF93FF93E0911106F0915A
:1013B0001206309709F451C0868DA685B7859585AC
:1013C00081FF04C08C91892329F447C08C91892323
:1013D00009F043C0A389B4899C91858980958923AC
:1013E0008C93868997890197F1F7208D318DA68599
:1013F000B785758558E040E0C9010197F1F7842F62
:1014000090E095958795482F6C91672309F0406887
:10141000515091F7868D81FD40958091D00590E0E7
:1014200001968F7399272091CF05281749F0A09135
:10143000D005B0E0AF52BA4F4C938093D00503C0B3
:10144000868D8160868F828D938D0197F1F7A389B8
:10145000B4898C919589892B8C93FF91EF91BF91E1
:10146000AF919F918F917F916F915F914F913F913C
:101470002F910F900FBE0F901F90189524EF34E01E
:10148000FC013183208342CF1F93CF93DF93EC0184
:10149000162F6E8D6695617081E06827812F5CDE66
:1014A00061E0812F20DE812F90E0FC01E458FF4FA6
:1014B000E491E88BFC01E057FF4FE491F0E0EE0F80
:1014C000FF1FE255FF4F859194919A8B898BDF9195
:1014D000CF911F9108951F93CF93DF93EC01162FA7
:1014E00060E0812F00DE8E8D81FD03C061E0812FE1
:1014F00033DE1C87812F90E0FC01E458FF4FE4911C
:10150000ED87FC01E057FF4FE491F0E0EE0FFF1F85
:10151000EC55FF4F859194919F878E87DF91CF91F6
:101520001F910895FF920F931F93CF93DF93EC01C8
:10153000F62E522F1B821A8208EE13E020E030E0D4
:101540000C831D832E833F8384EF94E099838883EB
:101550001F8A1E8A198E188E1B8E1A8E1D8E1C8E47
:101560008E8D8E7F50FB81F98E8F642FCE018CDFA4
:101570006F2DCE01DF91CF911F910F91FF90ABCFD7
:10158000CF93DF93EC019A01AB011B8E1A8E198E5B
:10159000188E1F8A1E8A60E079E08DE390E0B1D05A
:1015A000C9012430310520F0B9016350710902C02E
:1015B00061E070E07D8F6C8FEC85E63108F068C0EB
:1015C000B901769567956431710518F06351710919
:1015D00002C061E070E07F8B6E8B069718F0C90146
:1015E000059702C081E090E0998F888FC901880F2C
:1015F000991F820F931F96958795969587958D30A5
:10160000910510F00C9702C081E090E09B8F8A8FCB
:1016100020916800E83050F091E0EE3008F490E05E
:1016200081E001C0880F9A95EAF701C084E0822B1F
:10163000809368002C85283038F02E3040F0263119
:1016400048F48CE690E008C08DE690E005C08BE69B
:1016500090E002C080E090E09C8B8B8B283030F4CF
:1016600081E001C0880F2A95EAF70DC0822F90E033
:101670002E3010F4089701C00E9791E001C0990F29
:101680008A95EAF7892F8D8B8C8D9D8D0197F1F7C7
:10169000CE01DF91CF9150CE97FB072E16F4009428
:1016A00006D077FD08D053D007FC05D03EF49095C6
:1016B00081959F4F0895709561957F4F0895A1E2A0
:1016C0001A2EAA1BBB1BFD010DC0AA1FBB1FEE1FBC
:1016D000FF1FA217B307E407F50720F0A21BB30B07
:1016E000E40BF50B661F771F881F991F1A9469F783
:1016F00060957095809590959B01AC01BD01CF01DF
:101700000895052E97FB16F400940FD057FD05D0D1
:10171000D6DF07FC02D046F408C0509540953095BE
:1017200021953F4F4F4F5F4F08959095809570954D
:1017300061957F4F8F4F9F4F089523D0A59F900DA8
:10174000B49F900DA49F800D911D11240895AA1B94
:10175000BB1B51E107C0AA1FBB1FA617B70710F09C
:10176000A61BB70B881F991F5A95A9F780959095CE
:10177000BC01CD010895EE0FFF1F0590F491E02DFF
:101780000994A29FB001B39FC001A39F700D811D5A
:101790001124911DB29F700D811D1124911D08957A
:1017A00010E0C6ECD0E003C0FE01E7DF2296C83CA3
:0817B000D107D1F7F894FFCF37
:1017B8000000130620001E001E00E506E5065B4932
:1017C8004E464F5D3A496E697469616C697A696E13
:1017D8006720736F667477617265207365726961DB
:1017E8006C20666F72207361626572746F6F7468C3
:1017F8002E2E005B494E464F5D3A496E6974696109
:101808006C697A696E6720656E636F6465722070B3
:10181800696E732E2E005B494E464F5D3A496E69DC
:101828007469616C697A696E6720656E636F646557
:101838007220696E74657272757074732E2E005BF7
:10184800494E464F5D3A496E697469616C697A69B7
:101858006E6720736166657479207377697463684D
:1018680065732E2E005B494E464F5D3A496E69748A
:1018780069616C697A6174696F6E20636F6D706CF1
:101888006574652E2E004C533A0052533A003F00BF
:101898005361626572746F6F7468204D6F746F72F4
:1018A800204472697665002C00706C75746F2D3059
:1018B8002E302E31002D2D2D2D2D2D2D2D2D2D2D74
:1018C8002D2D2D2D2D2D2D2D2D2D2D2D2D2D2D2D40
:1018D8002D2D2D2D2D2D2D2D2D2D2D2D2D2D2D2D30
:1018E8002D2D2D2D2D2D2D2D2D2D2D2D2D2D2D2D20
:1018F8002D2D2D00506C6174666F726D3A20506CFE
:1019080075746F0050726F6772616D2074686174CE
:101918002072756E73206F6E2041726475696E6FE8
:1019280020756E6F20616E6420636F6E74726F6CC9
:1019380073207361626572746F6F746800327831F6
:101948003220416D7073206D6F746F7220647269FC
:101958007665722E0055736167653A005365726942
:10196800616C20636F6D6D616E64732061742031EA
:1019780031353230303A00773C73746570733E20ED
:101988002D4D6F766520666F727761726400733CC7
:1019980073746570733E202D4D6F76652072657681
:1019A8006572736500613C73746570733E202D4DDC
:1019B8006F7665206C65667400643C73746570733B
:1019C8003E202D4D6F766520726967687400713C02
:1019D80073746570733E202D4D6F7665206C656657
:1019E8007420666F7277617264007A3C73746570F4
:1019F800733E202D4D6F7665206C65667420726588
:101A0800766572736500653C73746570733E202D4E
:101A18004D6F766520726967687420666F727761AA
:101A2800726400633C73746570733E202D4D6F764D
:101A380065207269676874207265766572736500DF
:101A48007820202020202020202D53746F700072D1
:101A58003C73706565643E202D5265736574207310
:101A68007065656400743C73706565643E202D5232
:101A780065736574207370656564206F66206C6596
:101A8800667400793C73706565643E202D526573F9
:101A98006574207370656564206F66207269676875
:101AA80074006620202020202020202D47657420E7
:101AB80063757272656E742073706565642C20722C
:101AC800657475726E732D20274C33303A5234305A
:101AD800272028666F72206578616D706C65290013
:101AE800342C372C31302C31312C31332061726554
:101AF80020666F72207361666574792073776974E4
:101B080063686573004578616D706C653A2077325B
:101B180030202D4D6F7665732032302073746570D8
:101B28007320666F72776172640020202020202065
:101B3800202020723430202D526573657473207311
:101B48007065656420746F203430200020202020C8
:101B58002020202020202020202028537065656424
:101B68002072616E67653A20312D363320696E2008
:101B7800626F746820646972656374696F6E732933
:101B88000000000000ED03540572038B037D03CCB5
:101B9800030D0A006E616E00696E66006F7666005E
:101BA80000000000030954057009E20856095509A8
:00000001FF
