:1000000061C0000084C0000082C0000080C0000009
:100010007EC000007CC000007AC0000078C00000F4
:1000200076C0000074C0000072C0000070C0000004
:100030006EC000006CC000006AC0000068C0000014
:10004000F7C3000064C000004CC200007CC2000086
:100050005EC000005CC000005AC0000058C0000034
:1000600056C0000054C0000000000008000201005B
:100070000003040700000000000000000102040863
:100080001020408001020408102001020408102002
:10009000040404040404040402020202020203032E
:1000A00003030303000000002300260029000000D2
:1000B0000000250028002B0000000000240027007D
:1000C0002A00D10211241FBECFEFD8E0DEBFCDBF82
:1000D00011E0A0E0B1E0E2ECFBE002C005900D927F
:1000E000AE37B107D9F722E0AEE7B1E001C01D920B
:1000F000A432B207E1F710E0C4ECD0E003C02297CD
:10010000FE0159D5C23CD107D1F788D358C578CF65
:1001100026E040E052EC61E070E08EE791E081D1B2
:100120004AE050E060E070E08EE791E070D366E076
:1001300071E08EE791E0C0D26FE271E08EE791E06E
:10014000BBD261E082E07CD461E083E079D461E0FD
:1001500084E076D461E085E073C461E082E0A9D4F4
:1001600068EE73E080E090E0D0D360E082E0A1D45C
:1001700068EE73E080E090E0C8D361E083E099D45A
:1001800068EE73E080E090E0C0D360E083E091D45B
:1001900068EE73E080E090E0B8D361E084E089D459
:1001A00068EE73E080E090E0B0D360E084E081D45A
:1001B00068EE73E080E090E0A8D361E085E079D458
:1001C00068EE73E080E090E0A0D360E085E071D459
:1001D00068EE73E080E090E098C30895CF938EE7D7
:1001E00091E059D0843611F4B8DF33C0833769F415
:1001F000C2E08C2F93D4BC014AE050E08EE791E03E
:10020000FFD2CF5FC630A9F724C0853711F461E073
:1002100003C0883619F460E082E01AC0893611F410
:1002200061E003C08A3619F460E083E011C08F36C4
:1002300011F461E003C08B3619F460E084E008C07B
:10024000803711F461E003C08C3631F460E085E062
:1002500030D46BE571E002C06DE571E08EE791E0AE
:10026000CF912AC2FC01818D228D90E0805C9F4F4E
:10027000821B91098F7399270895FC01918D828DBE
:10028000981731F0828DE80FF11D858D90E008956B
:100290008FEF9FEF0895FC01918D828D981761F08B
:1002A000828DDF01A80FB11D5D968C91928D9F5FAD
:1002B0009F73928F90E008958FEF9FEF089588ECE1
:1002C00092E0892B39F08EEE90E0892B19F060D105
:1002D000811184CF0895FC01848DDF01A80FB11D29
:1002E000A35ABF4F2C91848D90E001968F7399276C
:1002F000848FA689B7892C93A089B1898C91806459
:100300008C93938D848D981306C00288F389E02D19
:1003100080818F7D80830895CF93DF93EC01888D5A
:100320008823C1F0EA89FB89808185FD05C0A88901
:10033000B9898C9186FD0EC00FB607FCF5CF808180
:1003400085FFF2CFA889B9898C9185FFEDCFCE01C9
:10035000C2DFE8CFDF91CF910895CF92DF92FF9275
:100360000F931F93CF93DF931F92CDB7DEB76C012E
:1003700081E0D60158968C9358975B969C915B9739
:100380005C968C915C97981307C05096ED91FC9108
:100390005197808185FD2DC0F601038D10E00F5F20
:1003A0001F4F0F731127F02EF601848DF81210C025
:1003B0000FB607FCF9CFD6015096ED91FC915197FD
:1003C000808185FFF1CFC601698385DF6981ECCF2C
:1003D000838DE80FF11DE35AFF4F6083D6015B96D2
:1003E0000C935B975296ED91FC91539780818062BC
:1003F0000CC0D6015696ED91FC91579760835096AC
:10040000ED91FC91519780818064808381E090E040
:100410000F90DF91CF911F910F91FF90DF90CF90C0
:100420000895BF92CF92DF92EF92FF92CF93DF9326
:10043000EC016A017B01B22EE889F98982E08083B0
:10044000411581EE58076105710599F060E079E08A
:100450008DE390E0A70196018AD32150310941092B
:1004600051095695479537952795211580E138070D
:1004700090F0E889F989108260E874E88EE190E0F4
:10048000A701960174D321503109410951095695AC
:10049000479537952795EC85FD853083EE85FF855B
:1004A0002083188EEC89FD89B082EA89FB898081DE
:1004B00080618083EA89FB89808188608083EA8902
:1004C000FB89808180688083EA89FB8980818F7DB8
:1004D0008083DF91CF91FF90EF90DF90CF90BF901E
:1004E00008951F920F920FB60F9211242F938F939E
:1004F0009F93EF93FF93E0918E01F0918F018081A4
:10050000E0919401F091950182FD12C0908180915B
:1005100097018F5F8F7320919801821751F0E091BE
:100520009701F0E0E258FE4F958F8093970101C04C
:100530008081FF91EF919F918F912F910F900FBE2E
:100540000F901F9018951F920F920FB60F921124C3
:100550002F933F934F935F936F937F938F939F93CB
:10056000AF93BF93EF93FF938EE791E0B4DEFF91DB
:10057000EF91BF91AF919F918F917F916F915F911B
:100580004F913F912F910F900FBE0F901F90189594
:100590008EE791E067DE21E0892B09F420E0822FCD
:1005A0000895109281011092800188EE93E0A0E0FE
:1005B000B0E08093820190938301A0938401B09373
:1005C000850183E691E090937F0180937E0185EC25
:1005D00090E090938B0180938A0184EC90E090935B
:1005E0008D0180938C0180EC90E090938F0180933B
:1005F0008E0181EC90E0909391018093900182ECC8
:1006000090E0909393018093920186EC90E0909318
:100610009501809394011092970110929801109285
:10062000990110929A010895CF92DF92EF92FF9272
:100630000F931F93CF93DF937C016A01EB0100E0DE
:1006400010E00C151D0571F06991D701ED91FC9139
:100650000190F081E02DC7010995892B19F00F5FFA
:100660001F4FEFCFC801DF91CF911F910F91FF90E6
:10067000EF90DF90CF9008956115710581F0DB0157
:100680000D900020E9F7AD0141505109461B570B71
:10069000DC01ED91FC910280F381E02D099480E072
:1006A00090E00895DC01ED91FC910190F081E02D46
:1006B00009946FE671E0E0CF0F931F93CF93DF9320
:1006C000EC01DADF8C01CE01F4DF800F911FDF91A6
:1006D000CF911F910F9108958F929F92AF92BF92E9
:1006E000DF92EF92FF920F931F93CF93DF93CDB7DB
:1006F000DEB7A1970FB6F894DEBF0FBECDBF7C0169
:10070000F42FD52ECB0119A2223008F42AE08E0155
:100710000F5D1F4F822E912CA12CB12C6F2F7D2DA0
:10072000A501940124D2F22FD32ECA010150110940
:100730006A3014F4E0E301C0E7E3E60FD801EC937C
:10074000232B242B252B51F7B801C70195DFA19648
:100750000FB6F894DEBF0FBECDBFDF91CF911F91D2
:100760000F91FF90EF90DF90BF90AF909F908F9090
:100770000895CF92DF92EF92FF920F931F93CF9342
:10078000DF93EC016A017B012115310579F4E881E1
:10079000F9810190F081E02D642FDF91CF911F91BD
:1007A0000F91FF90EF90DF90CF9009942A303105A0
:1007B000D9F477FF18C06DE275DF8C014427552707
:1007C000BA014C195D096E097F092AE0CE0184DF68
:1007D000800F911FDF91CF911F910F91FF90EF90AC
:1007E000DF90CF9008952AE0B701A601CE01DF91F6
:1007F000CF911F910F91FF90EF90DF90CF906CCF32
:100800009A01AB01662757FD6095762FB2CFFC01A8
:10081000448355836683778308950895ADD0FDDFC3
:1008200077DCCFE5D1E0D9DC2097E9F348DDFBCFD9
:100830001F920F920FB60F9211242F933F938F9315
:100840009F93AF93BF9380911C0290911D02A09142
:100850001E02B0911F0230911B0223E0230F2D379F
:1008600020F40196A11DB11D05C026E8230F0296B4
:10087000A11DB11D20931B0280931C0290931D02A9
:10088000A0931E02B0931F0280912002909121023A
:10089000A0912202B09123020196A11DB11D809367
:1008A000200290932102A0932202B0932302BF91D1
:1008B000AF919F918F913F912F910F900FBE0F900D
:1008C0001F9018953FB7F8948091200290912102D3
:1008D000A0912202B091230226B5A89B05C02F3F0C
:1008E00019F00196A11DB11D3FBF6627782F892FF2
:1008F0009A2F620F711D811D911D42E0660F771FB7
:10090000881F991F4A95D1F708958F929F92AF92B1
:10091000BF92CF92DF92EF92FF926B017C01D2DF08
:100920004B015C01C114D104E104F104E1F01ED1DA
:10093000C9DF681979098A099B09683E73408105F6
:10094000910580F321E0C21AD108E108F10888EE90
:10095000880E83E0981EA11CB11CC114D104E104CF
:10096000F10431F7DFCFFF90EF90DF90CF90BF9091
:10097000AF909F908F900895789484B5826084BDE5
:1009800084B5816084BD85B5826085BD85B5816093
:1009900085BDEEE6F0E0808181608083E1E8F0E0F3
:1009A0001082808182608083808181608083E0E822
:1009B000F0E0808181608083E1EBF0E08081846001
:1009C0008083E0EBF0E0808181608083EAE7F0E003
:1009D0008081846080838081826080838081816067
:1009E00080838081806880831092C1000895833065
:1009F00081F028F4813099F08230A1F00895873099
:100A0000A9F08830B9F08430D1F4809180008F7DD6
:100A100003C0809180008F7780938000089584B513
:100A20008F7702C084B58F7D84BD08958091B0001A
:100A30008F7703C08091B0008F7D8093B0000895C0
:100A4000CF93DF9390E0FC01E458FF4F2491FC0129
:100A5000E057FF4F8491882349F190E0880F991F58
:100A6000FC01E854FF4FA591B49182559F4FFC01C2
:100A7000C591D4919FB7611108C0F8948C912095CD
:100A800082238C93888182230AC0623051F4F894C7
:100A90008C91322F309583238C938881822B88838D
:100AA00004C0F8948C91822B8C939FBFDF91CF91DF
:100AB00008950F931F93CF93DF931F92CDB7DEB7A7
:100AC000282F30E0F901E859FF4F8491F901E458EB
:100AD000FF4F1491F901E057FF4F04910023C1F03B
:100AE000882319F0698383DF6981E02FF0E0EE0F3E
:100AF000FF1FE255FF4FA591B4919FB7F8948C91D9
:100B0000611103C01095812301C0812B8C939FBF7D
:100B10000F90DF91CF911F910F910895CF93DF93A5
:100B2000282F30E0F901E859FF4F8491F901E4588A
:100B3000FF4FD491F901E057FF4FC491CC2389F0C6
:100B4000811155DFEC2FF0E0EE0FFF1FEC55FF4F4A
:100B5000A591B4912C912D2381E090E021F480E0C7
:100B600002C080E090E0DF91CF9108950895A1E266
:100B70001A2EAA1BBB1BFD010DC0AA1FBB1FEE1F17
:100B8000FF1FA217B307E407F50720F0A21BB30B62
:100B9000E40BF50B661F771F881F991F1A9469F7DE
:100BA00060957095809590959B01AC01BD01CF013A
:100BB0000895EE0FFF1F0590F491E02D0994F8942D
:020BC000FFCF65
:100BC2000000240220005B494E464F5D3A496E699F
:100BD2007469616C697A696E6720706F77657220DB
:100BE20072656C617920696E707574732E2E005B6C
:100BF200494E464F5D3A506F77657220617420729C
:100C0200656C61792034206973206E6F726D616C3E
:100C12006C7920656E61626C6564003A003F000089
:100C2200000000AD01140332014B013D018C010DA6
:0E0C32000A006E616E00696E66006F766600E5
:00000001FF
