:100000005CC000007FC000007DC000007BC000001D
:1000100079C0000077C0000075C0000073C0000008
:1000200071C000006FC000006DC000006BC0000018
:1000300069C0000067C0000065C0000063C0000028
:1000400009C300005FC0000000C2000030C2000011
:1000500059C0000057C0000055C0000053C0000048
:1000600051C000004FC00000000000080002010065
:100070000003040700000000000000000102040863
:100080001020408001020408102001020408102002
:10009000040404040404040402020202020203032E
:1000A0000303030300000000250028002B000000CC
:1000B0000000240027002A00850211241FBECFEF74
:1000C000D8E0DEBFCDBF11E0A0E0B1E0E6E9F9E0A5
:1000D00002C005900D92A834B107D9F721E0A8E439
:1000E000B1E001C01D92AE3EB207E1F710E0CAEBED
:1000F000D0E003C02297FE0148D4C83BD107D1F716
:100100009FD247C47DCF26E040E052EC61E070E032
:1001100088E491E03AD14AE050E060E070E088E4A1
:1001200091E087D266E071E088E491E072D261E00C
:1001300082E098D361E083E095D361E084E092D3DC
:1001400061E085E08FC361E082E0C5D368EE73E0D3
:1001500080E090E0ECD260E082E0BDD368EE73E036
:1001600080E090E0E4D261E083E0B5D368EE73E034
:1001700080E090E0DCD260E083E0ADD368EE73E035
:1001800080E090E0D4D261E084E0A5D368EE73E033
:1001900080E090E0CCD260E084E09DD368EE73E034
:1001A00080E090E0C4D261E085E095D368EE73E032
:1001B00080E090E0BCD260E085E08DD368EE73E033
:1001C00080E090E0B4C288E491E019C0FC01818D28
:1001D000228D90E0805C9F4F821B91098F7399273D
:1001E0000895FC01918D828D981731F0828DE80F72
:1001F000F11D858D90E008958FEF9FEF0895FC012C
:10020000918D828D981761F0828DDF01A80FB11D4D
:100210005D968C91928D9F5F9F73928F90E0089571
:100220008FEF9FEF08958CE792E0892B39F083EEF2
:1002300090E0892B19F060D18111C5CF0895FC01A0
:10024000848DDF01A80FB11DA35ABF4F2C91848D5F
:1002500090E001968F739927848FA689B7892C9394
:10026000A089B1898C9180648C93938D848D98132F
:1002700006C00288F389E02D80818F7D80830895F8
:10028000CF93DF93EC01888D8823C1F0EA89FB8945
:10029000808185FD05C0A889B9898C9186FD0EC035
:1002A0000FB607FCF5CF808185FFF2CFA889B98909
:1002B0008C9185FFEDCFCE01C2DFE8CFDF91CF91EA
:1002C0000895CF92DF92FF920F931F93CF93DF9306
:1002D0001F92CDB7DEB76C0181E0D60158968C93A2
:1002E00058975B969C915B975C968C915C97981362
:1002F00007C05096ED91FC915197808185FD2DC0EE
:10030000F601038D10E00F5F1F4F0F731127F02EC2
:10031000F601848DF81210C00FB607FCF9CFD60194
:100320005096ED91FC915197808185FFF1CFC601E8
:10033000698385DF6981ECCF838DE80FF11DE35A76
:10034000FF4F6083D6015B960C935B975296ED91BD
:10035000FC915397808180620CC0D6015696ED9136
:10036000FC91579760835096ED91FC915197808155
:100370008064808381E090E00F90DF91CF911F91A6
:100380000F91FF90DF90CF900895BF92CF92DF92B0
:10039000EF92FF92CF93DF93EC016A017B01B22EC3
:1003A000E889F98982E08083411581EE580761056B
:1003B000710599F060E079E08DE390E0A701960186
:1003C000C0D22150310941095109569547953795B9
:1003D0002795211580E1380790F0E889F989108286
:1003E00060E874E88EE190E0A7019601AAD221505E
:1003F0003109410951095695479537952795EC855F
:10040000FD853083EE85FF852083188EEC89FD897C
:10041000B082EA89FB89808180618083EA89FB89D7
:10042000808188608083EA89FB89808180688083FD
:10043000EA89FB8980818F7D8083DF91CF91FF9056
:10044000EF90DF90CF90BF9008951F920F920FB65C
:100450000F9211242F938F939F93EF93FF93E0912B
:100460005801F09159018081E0915E01F0915F01A6
:1004700082FD12C09081809161018F5F8F73209106
:100480006201821751F0E0916101F0E0E85BFE4FFC
:10049000958F8093610101C08081FF91EF919F91C1
:1004A0008F912F910F900FBE0F901F9018951F9254
:1004B0000F920FB60F9211242F933F934F935F9398
:1004C0006F937F938F939F93AF93BF93EF93FF931C
:1004D00088E491E0B4DEFF91EF91BF91AF919F91DD
:1004E0008F917F916F915F914F913F912F910F90DD
:1004F0000FBE0F901F90189588E491E067DE21E011
:10050000892B09F420E0822F089510924B0110925C
:100510004A0188EE93E0A0E0B0E080934C01909314
:100520004D01A0934E01B0934F018DE291E0909365
:1005300049018093480185EC90E0909355018093A8
:10054000540184EC90E0909357018093560180EC25
:1005500090E0909359018093580181EC90E0909342
:100560005B0180935A0182EC90E090935D0180934F
:100570005C0186EC90E090935F0180935E011092A5
:10058000610110926201109263011092640108955A
:10059000CF92DF92EF92FF920F931F93CF93DF934F
:1005A0007C016A01EB0100E010E00C151D0571F003
:1005B0006991D701ED91FC910190F081E02DC70187
:1005C0000995892B19F00F5F1F4FEFCFC801DF91FD
:1005D000CF911F910F91FF90EF90DF90CF900895F2
:1005E0006115710581F0DB010D900020E9F7AD0187
:1005F00041505109461B570BDC01ED91FC910280E3
:10060000F381E02D099480E090E0089569E371E0C2
:10061000E7CF0F931F93CF93DF93EC01E1DF8C01C2
:10062000CE01F4DF800F911FDF91CF911F910F91C9
:100630000895FC0144835583668377830895089564
:10064000ADD0FDDF60DDC3E1D1E07DDD2097E9F3D2
:10065000EADDFBCF1F920F920FB60F9211242F935A
:100660003F938F939F93AF93BF938091E6019091B7
:10067000E701A091E801B091E9013091E50123E0A3
:10068000230F2D3720F40196A11DB11D05C026E8CA
:10069000230F0296A11DB11D2093E5018093E60171
:1006A0009093E701A093E801B093E9018091EA01FA
:1006B0009091EB01A091EC01B091ED010196A11D8B
:1006C000B11D8093EA019093EB01A093EC01B093EC
:1006D000ED01BF91AF919F918F913F912F910F901D
:1006E0000FBE0F901F9018953FB7F8948091EA01C4
:1006F0009091EB01A091EC01B091ED0126B5A89B82
:1007000005C02F3F19F00196A11DB11D3FBF6627FF
:10071000782F892F9A2F620F711D811D911D42E044
:10072000660F771F881F991F4A95D1F708958F92FA
:100730009F92AF92BF92CF92DF92EF92FF926B01A6
:100740007C01D2DF4B015C01C114D104E104F1044E
:10075000E1F0F6D0C9DF681979098A099B09683E7A
:1007600073408105910580F321E0C21AD108E108A8
:10077000F10888EE880E83E0981EA11CB11CC114FC
:10078000D104E104F10431F7DFCFFF90EF90DF9067
:10079000CF90BF90AF909F908F900895789484B53C
:1007A000826084BD84B5816084BD85B5826085BD6D
:1007B00085B5816085BDEEE6F0E080818160808353
:1007C000E1E8F0E010828081826080838081816036
:1007D0008083E0E8F0E0808181608083E1EBF0E0FD
:1007E000808184608083E0EBF0E0808181608083A1
:1007F000EAE7F0E08081846080838081826080838A
:100800008081816080838081806880831092C100B4
:100810000895833081F028F4813099F08230A1F07E
:1008200008958730A9F08830B9F08430D1F48091F0
:1008300080008F7D03C0809180008F77809380003F
:10084000089584B58F7702C084B58F7D84BD0895E7
:100850008091B0008F7703C08091B0008F7D80932E
:10086000B0000895CF93DF9390E0FC01E458FF4F70
:100870002491FC01E057FF4F8491882349F190E0D7
:10088000880F991FFC01E255FF4FA591B4918C553B
:100890009F4FFC01C591D4919FB7611108C0F89496
:1008A0008C91209582238C93888182230AC06230A8
:1008B00051F4F8948C91322F309583238C93888156
:1008C000822B888304C0F8948C91822B8C939FBFD9
:1008D000DF91CF9108950F931F93CF93DF931F92D2
:1008E000CDB7DEB7282F30E0F901E859FF4F8491EA
:1008F000F901E458FF4F1491F901E057FF4F0491BB
:100900000023C1F0882319F0698383DF6981E02F18
:10091000F0E0EE0FFF1FEC55FF4FA591B4919FB78C
:10092000F8948C91611103C01095812301C0812B33
:100930008C939FBF0F90DF91CF911F910F910895DE
:100940000895A1E21A2EAA1BBB1BFD010DC0AA1F10
:10095000BB1FEE1FFF1FA217B307E407F50720F028
:10096000A21BB30BE40BF50B661F771F881F991FA3
:100970001A9469F760957095809590959B01AC01EC
:10098000BD01CF010895EE0FFF1F0590F491E02DFA
:060990000994F894FFCF6A
:100996000000EE0120005B494E464F5D3A496E6904
:1009A6007469616C697A696E6720656E636F6465E8
:1009B600722070696E732E2E00000000006101C85F
:1009C60002E600FF00F10040010D0A006E616E00B4
:0809D600696E66006F76660091
:00000001FF
